{
  "contractName": "MarketEvents",
  "abi": [
    {
      "constant": true,
      "inputs": [],
      "name": "market",
      "outputs": [
        {
          "name": "",
          "type": "address"
        }
      ],
      "payable": false,
      "stateMutability": "view",
      "type": "function"
    },
    {
      "inputs": [],
      "payable": false,
      "stateMutability": "nonpayable",
      "type": "constructor"
    },
    {
      "anonymous": false,
      "inputs": [
        {
          "indexed": false,
          "name": "merchant",
          "type": "address"
        },
        {
          "indexed": false,
          "name": "vault",
          "type": "address"
        }
      ],
      "name": "VaultCreated",
      "type": "event"
    },
    {
      "anonymous": false,
      "inputs": [
        {
          "indexed": false,
          "name": "merchant",
          "type": "address"
        },
        {
          "indexed": false,
          "name": "id",
          "type": "uint256"
        }
      ],
      "name": "ListingCreated",
      "type": "event"
    },
    {
      "anonymous": false,
      "inputs": [
        {
          "indexed": false,
          "name": "id",
          "type": "uint256"
        },
        {
          "indexed": false,
          "name": "buyer",
          "type": "address"
        }
      ],
      "name": "ListingFulfilled",
      "type": "event"
    },
    {
      "anonymous": false,
      "inputs": [
        {
          "indexed": false,
          "name": "id",
          "type": "uint256"
        }
      ],
      "name": "ListingCancelled",
      "type": "event"
    },
    {
      "constant": false,
      "inputs": [
        {
          "name": "merchant",
          "type": "address"
        },
        {
          "name": "vault",
          "type": "address"
        }
      ],
      "name": "vault_created",
      "outputs": [],
      "payable": false,
      "stateMutability": "nonpayable",
      "type": "function"
    },
    {
      "constant": false,
      "inputs": [
        {
          "name": "merchant",
          "type": "address"
        },
        {
          "name": "id",
          "type": "uint256"
        }
      ],
      "name": "listing_created",
      "outputs": [],
      "payable": false,
      "stateMutability": "nonpayable",
      "type": "function"
    },
    {
      "constant": false,
      "inputs": [
        {
          "name": "id",
          "type": "uint256"
        },
        {
          "name": "buyer",
          "type": "address"
        }
      ],
      "name": "listing_fulfilled",
      "outputs": [],
      "payable": false,
      "stateMutability": "nonpayable",
      "type": "function"
    },
    {
      "constant": false,
      "inputs": [
        {
          "name": "id",
          "type": "uint256"
        }
      ],
      "name": "listing_cancelled",
      "outputs": [],
      "payable": false,
      "stateMutability": "nonpayable",
      "type": "function"
    }
  ],
  "bytecode": "0x608060405234801561001057600080fd5b50336000806101000a81548173ffffffffffffffffffffffffffffffffffffffff021916908373ffffffffffffffffffffffffffffffffffffffff160217905550610707806100606000396000f30060806040526004361061006d576000357c0100000000000000000000000000000000000000000000000000000000900463ffffffff16806330f27e2f146100725780635efca922146100bf57806380f55605146100ec5780639448875f14610143578063db5bca9014610190575b600080fd5b34801561007e57600080fd5b506100bd60048036038101908080359060200190929190803573ffffffffffffffffffffffffffffffffffffffff1690602001909291905050506101f3565b005b3480156100cb57600080fd5b506100ea60048036038101908080359060200190929190505050610326565b005b3480156100f857600080fd5b50610101610424565b604051808273ffffffffffffffffffffffffffffffffffffffff1673ffffffffffffffffffffffffffffffffffffffff16815260200191505060405180910390f35b34801561014f57600080fd5b5061018e600480360381019080803573ffffffffffffffffffffffffffffffffffffffff16906020019092919080359060200190929190505050610449565b005b34801561019c57600080fd5b506101f1600480360381019080803573ffffffffffffffffffffffffffffffffffffffff169060200190929190803573ffffffffffffffffffffffffffffffffffffffff16906020019092919050505061057c565b005b6000809054906101000a900473ffffffffffffffffffffffffffffffffffffffff1673ffffffffffffffffffffffffffffffffffffffff163373ffffffffffffffffffffffffffffffffffffffff161415156102b7576040517f08c379a00000000000000000000000000000000000000000000000000000000081526004018080602001828103825260138152602001807f554e415554484f52495a45442053454e4445520000000000000000000000000081525060200191505060405180910390fd5b7fd09f1e54b4726a5493008cebbfee8df5ce877d57d4052ad30626e68259b2848b8282604051808381526020018273ffffffffffffffffffffffffffffffffffffffff1673ffffffffffffffffffffffffffffffffffffffff1681526020019250505060405180910390a15050565b6000809054906101000a900473ffffffffffffffffffffffffffffffffffffffff1673ffffffffffffffffffffffffffffffffffffffff163373ffffffffffffffffffffffffffffffffffffffff161415156103ea576040517f08c379a00000000000000000000000000000000000000000000000000000000081526004018080602001828103825260138152602001807f554e415554484f52495a45442053454e4445520000000000000000000000000081525060200191505060405180910390fd5b7f411aee90354c51b1b04cd563fcab2617142a9d50da19232d888547c8a1b7fd8a816040518082815260200191505060405180910390a150565b6000809054906101000a900473ffffffffffffffffffffffffffffffffffffffff1681565b6000809054906101000a900473ffffffffffffffffffffffffffffffffffffffff1673ffffffffffffffffffffffffffffffffffffffff163373ffffffffffffffffffffffffffffffffffffffff1614151561050d576040517f08c379a00000000000000000000000000000000000000000000000000000000081526004018080602001828103825260138152602001807f554e415554484f52495a45442053454e4445520000000000000000000000000081525060200191505060405180910390fd5b7ff060b874355dd22d0bc251d61fca3b6d902778149a3048748276c9ee78ead56c8282604051808373ffffffffffffffffffffffffffffffffffffffff1673ffffffffffffffffffffffffffffffffffffffff1681526020018281526020019250505060405180910390a15050565b6000809054906101000a900473ffffffffffffffffffffffffffffffffffffffff1673ffffffffffffffffffffffffffffffffffffffff163373ffffffffffffffffffffffffffffffffffffffff16141515610640576040517f08c379a00000000000000000000000000000000000000000000000000000000081526004018080602001828103825260138152602001807f554e415554484f52495a45442053454e4445520000000000000000000000000081525060200191505060405180910390fd5b7f5d9c31ffa0fecffd7cf379989a3c7af252f0335e0d2a1320b55245912c781f538282604051808373ffffffffffffffffffffffffffffffffffffffff1673ffffffffffffffffffffffffffffffffffffffff1681526020018273ffffffffffffffffffffffffffffffffffffffff1673ffffffffffffffffffffffffffffffffffffffff1681526020019250505060405180910390a150505600a165627a7a7230582041b9680657a2b71c6683d9bf12c4857cb5375f1b5599b72177150c67d23a18700029",
  "source": "pragma solidity ^0.4.24;\r\n\r\nimport \"../Market.sol\";\r\n\r\ncontract MarketEvents {\r\n    Market public market;\r\n\r\n    constructor () {\r\n        market = Market(msg.sender);\r\n    }\r\n\r\n    modifier only_auction_house {\r\n        require (msg.sender == address(market), \"UNAUTHORIZED SENDER\");\r\n        _;\r\n    }\r\n\r\n    /// @notice Let the world know a new merchant vault has been created\r\n    /// @param merchant The merchant who has created a Vault\r\n    /// @param vault The address of the Vault that has been created\r\n    event VaultCreated (address merchant, address vault);\r\n    function vault_created (address merchant, address vault)\r\n        public \r\n        only_auction_house \r\n    {\r\n        emit VaultCreated(merchant, vault);\r\n    }\r\n\r\n    /// @notice Listing created event\r\n    /// @param merchant The merchant who has created the listing\r\n    /// @param id The id of the listing that has been created\r\n    event ListingCreated (address merchant, uint id);\r\n    function listing_created (address merchant, uint id) \r\n        public \r\n        only_auction_house \r\n    {\r\n        emit ListingCreated(merchant, id);\r\n    }\r\n\r\n    /// @notice Listing fulfilled event\r\n    /// @param id The ID of the lisiing being fulfilled\r\n    /// @param buyer The address of the buyer\r\n    event ListingFulfilled (uint id, address buyer);\r\n    function listing_fulfilled (uint id, address buyer)\r\n        public\r\n        only_auction_house\r\n    {\r\n        emit ListingFulfilled(id, buyer);\r\n    }\r\n\r\n    /// @notice Listing canceled event\r\n    /// @param id The id of the listing that has been cancelled\r\n    event ListingCancelled (uint id);\r\n    function listing_cancelled (uint id)\r\n        public\r\n        only_auction_house\r\n    {\r\n        emit ListingCancelled(id);\r\n    }\r\n}",
  "sourcePath": "/mnt/c/Users/matth/Documents/LootSafe/lootsafe.market.api/market/contracts/contracts/lib/MarketEvents.sol",
  "compiler": {
    "name": "solc",
    "version": "0.4.24+commit.e67f0147.Emscripten.clang"
  },
  "schemaVersion": "2.0.1",
  "updatedAt": "2018-07-26T02:44:20.336Z"
}