{
  "contractName": "Vault",
  "abi": [
    {
      "constant": true,
      "inputs": [],
      "name": "parent",
      "outputs": [
        {
          "name": "",
          "type": "address"
        }
      ],
      "payable": false,
      "stateMutability": "view",
      "type": "function"
    },
    {
      "constant": true,
      "inputs": [],
      "name": "merchant",
      "outputs": [
        {
          "name": "",
          "type": "address"
        }
      ],
      "payable": false,
      "stateMutability": "view",
      "type": "function"
    },
    {
      "inputs": [
        {
          "name": "_merchant",
          "type": "address"
        }
      ],
      "payable": false,
      "stateMutability": "nonpayable",
      "type": "constructor"
    },
    {
      "constant": false,
      "inputs": [
        {
          "name": "asset",
          "type": "address"
        },
        {
          "name": "value",
          "type": "uint256"
        }
      ],
      "name": "has_balance",
      "outputs": [
        {
          "name": "",
          "type": "bool"
        }
      ],
      "payable": false,
      "stateMutability": "nonpayable",
      "type": "function"
    },
    {
      "constant": false,
      "inputs": [
        {
          "name": "asset",
          "type": "address"
        },
        {
          "name": "amount",
          "type": "uint256"
        }
      ],
      "name": "lock_asset",
      "outputs": [],
      "payable": false,
      "stateMutability": "nonpayable",
      "type": "function"
    },
    {
      "constant": false,
      "inputs": [
        {
          "name": "asset",
          "type": "address"
        },
        {
          "name": "amount",
          "type": "uint256"
        }
      ],
      "name": "unlock_asset",
      "outputs": [],
      "payable": false,
      "stateMutability": "nonpayable",
      "type": "function"
    },
    {
      "constant": false,
      "inputs": [
        {
          "name": "asset",
          "type": "address"
        },
        {
          "name": "value",
          "type": "uint256"
        }
      ],
      "name": "withdrawal",
      "outputs": [],
      "payable": false,
      "stateMutability": "nonpayable",
      "type": "function"
    },
    {
      "constant": false,
      "inputs": [
        {
          "name": "to",
          "type": "address"
        },
        {
          "name": "asset",
          "type": "address"
        },
        {
          "name": "value",
          "type": "uint256"
        }
      ],
      "name": "transfer",
      "outputs": [],
      "payable": false,
      "stateMutability": "nonpayable",
      "type": "function"
    },
    {
      "constant": false,
      "inputs": [],
      "name": "ether_saver",
      "outputs": [],
      "payable": false,
      "stateMutability": "nonpayable",
      "type": "function"
    }
  ],
  "bytecode": "0x608060405234801561001057600080fd5b50604051602080610eaa8339810180604052810190808051906020019092919050505033600160006101000a81548173ffffffffffffffffffffffffffffffffffffffff021916908373ffffffffffffffffffffffffffffffffffffffff16021790555080600260006101000a81548173ffffffffffffffffffffffffffffffffffffffff021916908373ffffffffffffffffffffffffffffffffffffffff16021790555050610de5806100c56000396000f30060806040526004361061008e576000357c0100000000000000000000000000000000000000000000000000000000900463ffffffff1680635a6b26ba1461009357806360f96a8f146100e057806369fb03b514610137578063760c84fd14610184578063870d0b841461019b578063a48cb6d714610200578063a5ff76511461024d578063beabacc8146102a4575b600080fd5b34801561009f57600080fd5b506100de600480360381019080803573ffffffffffffffffffffffffffffffffffffffff16906020019092919080359060200190929190505050610311565b005b3480156100ec57600080fd5b506100f561069f565b604051808273ffffffffffffffffffffffffffffffffffffffff1673ffffffffffffffffffffffffffffffffffffffff16815260200191505060405180910390f35b34801561014357600080fd5b50610182600480360381019080803573ffffffffffffffffffffffffffffffffffffffff169060200190929190803590602001909291905050506106c5565b005b34801561019057600080fd5b506101996107da565b005b3480156101a757600080fd5b506101e6600480360381019080803573ffffffffffffffffffffffffffffffffffffffff169060200190929190803590602001909291905050506108ff565b604051808215151515815260200191505060405180910390f35b34801561020c57600080fd5b5061024b600480360381019080803573ffffffffffffffffffffffffffffffffffffffff169060200190929190803590602001909291905050506109e2565b005b34801561025957600080fd5b50610262610be4565b604051808273ffffffffffffffffffffffffffffffffffffffff1673ffffffffffffffffffffffffffffffffffffffff16815260200191505060405180910390f35b3480156102b057600080fd5b5061030f600480360381019080803573ffffffffffffffffffffffffffffffffffffffff169060200190929190803573ffffffffffffffffffffffffffffffffffffffff16906020019092919080359060200190929190505050610c0a565b005b6000806000600260009054906101000a900473ffffffffffffffffffffffffffffffffffffffff1673ffffffffffffffffffffffffffffffffffffffff163373ffffffffffffffffffffffffffffffffffffffff161415156103db576040517f08c379a000000000000000000000000000000000000000000000000000000000815260040180806020018281038252601c8152602001807f554e415554484f52495a4544204d45524348414e542053454e4445520000000081525060200191505060405180910390fd5b8492508273ffffffffffffffffffffffffffffffffffffffff166370a08231306040518263ffffffff167c0100000000000000000000000000000000000000000000000000000000028152600401808273ffffffffffffffffffffffffffffffffffffffff1673ffffffffffffffffffffffffffffffffffffffff168152602001915050602060405180830381600087803b15801561047957600080fd5b505af115801561048d573d6000803e3d6000fd5b505050506040513d60208110156104a357600080fd5b810190808051906020019092919050505091506000808673ffffffffffffffffffffffffffffffffffffffff1673ffffffffffffffffffffffffffffffffffffffff1681526020019081526020016000205490508381830310151515610597576040517f08c379a00000000000000000000000000000000000000000000000000000000081526004018080602001828103825260248152602001807f494e53554646494349454e54204f52204c4f434b4544205641554c542042414c81526020017f414e43450000000000000000000000000000000000000000000000000000000081525060400191505060405180910390fd5b8273ffffffffffffffffffffffffffffffffffffffff1663a9059cbb600260009054906101000a900473ffffffffffffffffffffffffffffffffffffffff16866040518363ffffffff167c0100000000000000000000000000000000000000000000000000000000028152600401808373ffffffffffffffffffffffffffffffffffffffff1673ffffffffffffffffffffffffffffffffffffffff16815260200182815260200192505050602060405180830381600087803b15801561065c57600080fd5b505af1158015610670573d6000803e3d6000fd5b505050506040513d602081101561068657600080fd5b8101908080519060200190929190505050505050505050565b600160009054906101000a900473ffffffffffffffffffffffffffffffffffffffff1681565b600160009054906101000a900473ffffffffffffffffffffffffffffffffffffffff1673ffffffffffffffffffffffffffffffffffffffff163373ffffffffffffffffffffffffffffffffffffffff1614151561078a576040517f08c379a000000000000000000000000000000000000000000000000000000000815260040180806020018281038252601a8152602001807f554e415554484f52495a454420504152454e542053454e44455200000000000081525060200191505060405180910390fd5b806000808473ffffffffffffffffffffffffffffffffffffffff1673ffffffffffffffffffffffffffffffffffffffff168152602001908152602001600020600082825401925050819055505050565b600260009054906101000a900473ffffffffffffffffffffffffffffffffffffffff1673ffffffffffffffffffffffffffffffffffffffff163373ffffffffffffffffffffffffffffffffffffffff1614151561089f576040517f08c379a000000000000000000000000000000000000000000000000000000000815260040180806020018281038252601c8152602001807f554e415554484f52495a4544204d45524348414e542053454e4445520000000081525060200191505060405180910390fd5b3373ffffffffffffffffffffffffffffffffffffffff166108fc3073ffffffffffffffffffffffffffffffffffffffff16319081150290604051600060405180830381858888f193505050501580156108fc573d6000803e3d6000fd5b50565b6000818373ffffffffffffffffffffffffffffffffffffffff166370a08231306040518263ffffffff167c0100000000000000000000000000000000000000000000000000000000028152600401808273ffffffffffffffffffffffffffffffffffffffff1673ffffffffffffffffffffffffffffffffffffffff168152602001915050602060405180830381600087803b15801561099d57600080fd5b505af11580156109b1573d6000803e3d6000fd5b505050506040513d60208110156109c757600080fd5b81019080805190602001909291905050501015905092915050565b600160009054906101000a900473ffffffffffffffffffffffffffffffffffffffff1673ffffffffffffffffffffffffffffffffffffffff163373ffffffffffffffffffffffffffffffffffffffff16141515610aa7576040517f08c379a000000000000000000000000000000000000000000000000000000000815260040180806020018281038252601a8152602001807f554e415554484f52495a454420504152454e542053454e44455200000000000081525060200191505060405180910390fd5b806000808473ffffffffffffffffffffffffffffffffffffffff1673ffffffffffffffffffffffffffffffffffffffff1681526020019081526020016000205410151515610b5d576040517f08c379a000000000000000000000000000000000000000000000000000000000815260040180806020018281038252601a8152602001807f554e444552464c4f57204f46204c4f434b45442041535345545300000000000081525060200191505060405180910390fd5b806000808473ffffffffffffffffffffffffffffffffffffffff1673ffffffffffffffffffffffffffffffffffffffff16815260200190815260200160002054036000808473ffffffffffffffffffffffffffffffffffffffff1673ffffffffffffffffffffffffffffffffffffffff168152602001908152602001600020819055505050565b600260009054906101000a900473ffffffffffffffffffffffffffffffffffffffff1681565b6000600160009054906101000a900473ffffffffffffffffffffffffffffffffffffffff1673ffffffffffffffffffffffffffffffffffffffff163373ffffffffffffffffffffffffffffffffffffffff16141515610cd1576040517f08c379a000000000000000000000000000000000000000000000000000000000815260040180806020018281038252601a8152602001807f554e415554484f52495a454420504152454e542053454e44455200000000000081525060200191505060405180910390fd5b8290508073ffffffffffffffffffffffffffffffffffffffff1663a9059cbb85846040518363ffffffff167c0100000000000000000000000000000000000000000000000000000000028152600401808373ffffffffffffffffffffffffffffffffffffffff1673ffffffffffffffffffffffffffffffffffffffff16815260200182815260200192505050602060405180830381600087803b158015610d7757600080fd5b505af1158015610d8b573d6000803e3d6000fd5b505050506040513d6020811015610da157600080fd5b810190808051906020019092919050505050505050505600a165627a7a723058205032f480401f42eff802bbbd645b2a1c7e64e35978388d0188416984c78ef9f00029",
  "source": "// Restricted access wallet contract\r\n// https://github.com/lootsafe/lootsafe.auctionhou.se.contracts\r\npragma solidity ^0.4.24;\r\n\r\nimport \"./lib/EIP20Interface.sol\";\r\nimport \"./Market.sol\";\r\n\r\ncontract Vault {\r\n    /* The Vault acts as a storage account managed by two parties.\r\n    Either the Contract (Market) or the Merchant (you!) can\r\n    withdraw or manage funds accordingly, additional security is \r\n    added to prevent wasting other parties gas, for instance if an\r\n    asset is locked in a listing offer the vault will prevent withdraw \r\n    preventing failed transactions and wasted gas from parties trying \r\n    to fulfil the listing later on.\r\n    */\r\n\r\n    /// @notice Assets currently locked in functionality by parent contract\r\n    mapping (address => uint256) locked_assets;\r\n\r\n    Market public parent; // Origin contract\r\n    address public merchant; // Owner of this inventory\r\n\r\n    /// @notice Allows ONLY the merchant to execute\r\n    modifier only_merchant {\r\n        require(msg.sender == merchant, \"UNAUTHORIZED MERCHANT SENDER\");\r\n        _;\r\n    }\r\n\r\n    /// @notice Allow ONLY the parent contract to execute\r\n    modifier only_parent {\r\n        require(msg.sender == address(parent), \"UNAUTHORIZED PARENT SENDER\");\r\n        _;\r\n    }\r\n\r\n    /// @notice Allows both parties to execute\r\n    modifier multi_auth {\r\n        require(msg.sender == address(parent) || msg.sender == merchant, \"UNAUTHORIZED MULTIAUTH SENDER\");\r\n        _;\r\n    }\r\n\r\n    /// @notice Vault constructor\r\n    /// @param _merchant The owner of this Vault, \r\n    constructor (address _merchant) public {\r\n        parent = Market(msg.sender);\r\n        merchant = _merchant;\r\n    }\r\n\r\n    /// @notice Check balances of assets\r\n    /// @param asset Address of asset to check balance of\r\n    /// @param value Value expected to have\r\n    function has_balance (address asset, uint256 value) public returns (bool) {\r\n        return (EIP20Interface(asset).balanceOf(this) >= value);\r\n    }\r\n\r\n    /// @notice Lock assets from withdraw\r\n    /// @param asset Address of asset to be locked up\r\n    /// @param amount Amount of asset to lock up\r\n    function lock_asset (address asset, uint256 amount) public only_parent {\r\n        locked_assets[asset] += amount;\r\n    }\r\n\r\n    /// @notice Unlock assets from withdraw\r\n    /// @param asset Address of asset to be unlocked\r\n    /// @param amount Amount of asset to unlocked\r\n    function unlock_asset (address asset, uint256 amount) public only_parent {\r\n        require(locked_assets[asset] >= amount, \"UNDERFLOW OF LOCKED ASSETS\");\r\n        locked_assets[asset] = locked_assets[asset] - amount;\r\n    }\r\n    \r\n\r\n    /// @notice Allow withdraw of non-locked funds\r\n    /// @param asset The asset the merchant want's to withdraw\r\n    /// @param value The amount of asset to be transferred\r\n    function withdrawal (address asset, uint256 value) public only_merchant {\r\n        EIP20Interface i_asset = EIP20Interface(asset);\r\n        uint256 balance = i_asset.balanceOf(this);\r\n        uint256 locked = locked_assets[asset];\r\n        require(balance - locked >= value, \"INSUFFICIENT OR LOCKED VAULT BALANCE\");\r\n        i_asset.transfer(merchant, value);\r\n    }\r\n\r\n    /// @notice Allow the creator to run transfers of assets\r\n    /// @param to The address to transfer to\r\n    /// @param asset The asset to transfer\r\n    /// @param value The amount of asset to be transferred\r\n    function transfer (address to, address asset, uint256 value) public only_parent {\r\n        EIP20Interface i_asset = EIP20Interface(asset);\r\n        i_asset.transfer(to, value);\r\n    }\r\n\r\n    /// @notice redeem accidental ETH sent to the contract\r\n    function ether_saver () public only_merchant {\r\n        msg.sender.transfer(address(this).balance);\r\n    }\r\n}\r\n",
  "sourcePath": "/Users/mattwisniewski/Documents/LootSafe/lootsafe.market.api/market/contracts/contracts/Vault.sol",
  "compiler": {
    "name": "solc",
    "version": "0.4.24+commit.e67f0147.Emscripten.clang"
  },
  "schemaVersion": "2.0.1",
  "updatedAt": "2018-07-29T08:32:56.357Z"
}